{
	"data": {
		"bytecode": {
			"linkReferences": {},
			"object": "608060405234801561001057600080fd5b506100556040518060400160405280600b81526020017f63616e646964617465203100000000000000000000000000000000000000000081525061009e60201b60201c565b6100996040518060400160405280600b81526020017f63616e646964617465203200000000000000000000000000000000000000000081525061009e60201b60201c565b6102a5565b600160008154809291906100b1906101fe565b9190505550604051806060016040528060015481526020018281526020016000815250600080600154815260200190815260200160002060008201518160000155602082015181600101908051906020019061010e92919061011f565b506040820151816002015590505050565b82805461012b906101cc565b90600052602060002090601f01602090048101928261014d5760008555610194565b82601f1061016657805160ff1916838001178555610194565b82800160010185558215610194579182015b82811115610193578251825591602001919060010190610178565b5b5090506101a191906101a5565b5090565b5b808211156101be5760008160009055506001016101a6565b5090565b6000819050919050565b600060028204905060018216806101e457607f821691505b602082108114156101f8576101f7610276565b5b50919050565b6000610209826101c2565b91507fffffffffffffffffffffffffffffffffffffffffffffffffffffffffffffffff82141561023c5761023b610247565b5b600182019050919050565b7f4e487b7100000000000000000000000000000000000000000000000000000000600052601160045260246000fd5b7f4e487b7100000000000000000000000000000000000000000000000000000000600052602260045260246000fd5b61033a806102b46000396000f3fe608060405234801561001057600080fd5b50600436106100365760003560e01c80632d35a8a21461003b5780633477ee2e14610059575b600080fd5b61004361008b565b60405161005091906101c9565b60405180910390f35b610073600480360381019061006e9190610158565b610091565b604051610082939291906101e4565b60405180910390f35b60015481565b60006020528060005260406000206000915090508060000154908060010180546100ba9061027b565b80601f01602080910402602001604051908101604052809291908181526020018280546100e69061027b565b80156101335780601f1061010857610100808354040283529160200191610133565b820191906000526020600020905b81548152906001019060200180831161011657829003601f168201915b5050505050908060020154905083565b600081359050610152816102ed565b92915050565b60006020828403121561016a57600080fd5b600061017884828501610143565b91505092915050565b600061018c82610222565b610196818561022d565b93506101a6818560208601610248565b6101af816102dc565b840191505092915050565b6101c38161023e565b82525050565b60006020820190506101de60008301846101ba565b92915050565b60006060820190506101f960008301866101ba565b818103602083015261020b8185610181565b905061021a60408301846101ba565b949350505050565b600081519050919050565b600082825260208201905092915050565b6000819050919050565b60005b8381101561026657808201518184015260208101905061024b565b83811115610275576000848401525b50505050565b6000600282049050600182168061029357607f821691505b602082108114156102a7576102a66102ad565b5b50919050565b7f4e487b7100000000000000000000000000000000000000000000000000000000600052602260045260246000fd5b6000601f19601f8301169050919050565b6102f68161023e565b811461030157600080fd5b5056fea264697066735822122098468136ded7a0851abe57b46257de4c4b040092754e05928a19360150dcdfa664736f6c63430008010033",
			"opcodes": "PUSH1 0x80 PUSH1 0x40 MSTORE CALLVALUE DUP1 ISZERO PUSH2 0x10 JUMPI PUSH1 0x0 DUP1 REVERT JUMPDEST POP PUSH2 0x55 PUSH1 0x40 MLOAD DUP1 PUSH1 0x40 ADD PUSH1 0x40 MSTORE DUP1 PUSH1 0xB DUP2 MSTORE PUSH1 0x20 ADD PUSH32 0x63616E6469646174652031000000000000000000000000000000000000000000 DUP2 MSTORE POP PUSH2 0x9E PUSH1 0x20 SHL PUSH1 0x20 SHR JUMP JUMPDEST PUSH2 0x99 PUSH1 0x40 MLOAD DUP1 PUSH1 0x40 ADD PUSH1 0x40 MSTORE DUP1 PUSH1 0xB DUP2 MSTORE PUSH1 0x20 ADD PUSH32 0x63616E6469646174652032000000000000000000000000000000000000000000 DUP2 MSTORE POP PUSH2 0x9E PUSH1 0x20 SHL PUSH1 0x20 SHR JUMP JUMPDEST PUSH2 0x2A5 JUMP JUMPDEST PUSH1 0x1 PUSH1 0x0 DUP2 SLOAD DUP1 SWAP3 SWAP2 SWAP1 PUSH2 0xB1 SWAP1 PUSH2 0x1FE JUMP JUMPDEST SWAP2 SWAP1 POP SSTORE POP PUSH1 0x40 MLOAD DUP1 PUSH1 0x60 ADD PUSH1 0x40 MSTORE DUP1 PUSH1 0x1 SLOAD DUP2 MSTORE PUSH1 0x20 ADD DUP3 DUP2 MSTORE PUSH1 0x20 ADD PUSH1 0x0 DUP2 MSTORE POP PUSH1 0x0 DUP1 PUSH1 0x1 SLOAD DUP2 MSTORE PUSH1 0x20 ADD SWAP1 DUP2 MSTORE PUSH1 0x20 ADD PUSH1 0x0 KECCAK256 PUSH1 0x0 DUP3 ADD MLOAD DUP2 PUSH1 0x0 ADD SSTORE PUSH1 0x20 DUP3 ADD MLOAD DUP2 PUSH1 0x1 ADD SWAP1 DUP1 MLOAD SWAP1 PUSH1 0x20 ADD SWAP1 PUSH2 0x10E SWAP3 SWAP2 SWAP1 PUSH2 0x11F JUMP JUMPDEST POP PUSH1 0x40 DUP3 ADD MLOAD DUP2 PUSH1 0x2 ADD SSTORE SWAP1 POP POP POP JUMP JUMPDEST DUP3 DUP1 SLOAD PUSH2 0x12B SWAP1 PUSH2 0x1CC JUMP JUMPDEST SWAP1 PUSH1 0x0 MSTORE PUSH1 0x20 PUSH1 0x0 KECCAK256 SWAP1 PUSH1 0x1F ADD PUSH1 0x20 SWAP1 DIV DUP2 ADD SWAP3 DUP3 PUSH2 0x14D JUMPI PUSH1 0x0 DUP6 SSTORE PUSH2 0x194 JUMP JUMPDEST DUP3 PUSH1 0x1F LT PUSH2 0x166 JUMPI DUP1 MLOAD PUSH1 0xFF NOT AND DUP4 DUP1 ADD OR DUP6 SSTORE PUSH2 0x194 JUMP JUMPDEST DUP3 DUP1 ADD PUSH1 0x1 ADD DUP6 SSTORE DUP3 ISZERO PUSH2 0x194 JUMPI SWAP2 DUP3 ADD JUMPDEST DUP3 DUP2 GT ISZERO PUSH2 0x193 JUMPI DUP3 MLOAD DUP3 SSTORE SWAP2 PUSH1 0x20 ADD SWAP2 SWAP1 PUSH1 0x1 ADD SWAP1 PUSH2 0x178 JUMP JUMPDEST JUMPDEST POP SWAP1 POP PUSH2 0x1A1 SWAP2 SWAP1 PUSH2 0x1A5 JUMP JUMPDEST POP SWAP1 JUMP JUMPDEST JUMPDEST DUP1 DUP3 GT ISZERO PUSH2 0x1BE JUMPI PUSH1 0x0 DUP2 PUSH1 0x0 SWAP1 SSTORE POP PUSH1 0x1 ADD PUSH2 0x1A6 JUMP JUMPDEST POP SWAP1 JUMP JUMPDEST PUSH1 0x0 DUP2 SWAP1 POP SWAP2 SWAP1 POP JUMP JUMPDEST PUSH1 0x0 PUSH1 0x2 DUP3 DIV SWAP1 POP PUSH1 0x1 DUP3 AND DUP1 PUSH2 0x1E4 JUMPI PUSH1 0x7F DUP3 AND SWAP2 POP JUMPDEST PUSH1 0x20 DUP3 LT DUP2 EQ ISZERO PUSH2 0x1F8 JUMPI PUSH2 0x1F7 PUSH2 0x276 JUMP JUMPDEST JUMPDEST POP SWAP2 SWAP1 POP JUMP JUMPDEST PUSH1 0x0 PUSH2 0x209 DUP3 PUSH2 0x1C2 JUMP JUMPDEST SWAP2 POP PUSH32 0xFFFFFFFFFFFFFFFFFFFFFFFFFFFFFFFFFFFFFFFFFFFFFFFFFFFFFFFFFFFFFFFF DUP3 EQ ISZERO PUSH2 0x23C JUMPI PUSH2 0x23B PUSH2 0x247 JUMP JUMPDEST JUMPDEST PUSH1 0x1 DUP3 ADD SWAP1 POP SWAP2 SWAP1 POP JUMP JUMPDEST PUSH32 0x4E487B7100000000000000000000000000000000000000000000000000000000 PUSH1 0x0 MSTORE PUSH1 0x11 PUSH1 0x4 MSTORE PUSH1 0x24 PUSH1 0x0 REVERT JUMPDEST PUSH32 0x4E487B7100000000000000000000000000000000000000000000000000000000 PUSH1 0x0 MSTORE PUSH1 0x22 PUSH1 0x4 MSTORE PUSH1 0x24 PUSH1 0x0 REVERT JUMPDEST PUSH2 0x33A DUP1 PUSH2 0x2B4 PUSH1 0x0 CODECOPY PUSH1 0x0 RETURN INVALID PUSH1 0x80 PUSH1 0x40 MSTORE CALLVALUE DUP1 ISZERO PUSH2 0x10 JUMPI PUSH1 0x0 DUP1 REVERT JUMPDEST POP PUSH1 0x4 CALLDATASIZE LT PUSH2 0x36 JUMPI PUSH1 0x0 CALLDATALOAD PUSH1 0xE0 SHR DUP1 PUSH4 0x2D35A8A2 EQ PUSH2 0x3B JUMPI DUP1 PUSH4 0x3477EE2E EQ PUSH2 0x59 JUMPI JUMPDEST PUSH1 0x0 DUP1 REVERT JUMPDEST PUSH2 0x43 PUSH2 0x8B JUMP JUMPDEST PUSH1 0x40 MLOAD PUSH2 0x50 SWAP2 SWAP1 PUSH2 0x1C9 JUMP JUMPDEST PUSH1 0x40 MLOAD DUP1 SWAP2 SUB SWAP1 RETURN JUMPDEST PUSH2 0x73 PUSH1 0x4 DUP1 CALLDATASIZE SUB DUP2 ADD SWAP1 PUSH2 0x6E SWAP2 SWAP1 PUSH2 0x158 JUMP JUMPDEST PUSH2 0x91 JUMP JUMPDEST PUSH1 0x40 MLOAD PUSH2 0x82 SWAP4 SWAP3 SWAP2 SWAP1 PUSH2 0x1E4 JUMP JUMPDEST PUSH1 0x40 MLOAD DUP1 SWAP2 SUB SWAP1 RETURN JUMPDEST PUSH1 0x1 SLOAD DUP2 JUMP JUMPDEST PUSH1 0x0 PUSH1 0x20 MSTORE DUP1 PUSH1 0x0 MSTORE PUSH1 0x40 PUSH1 0x0 KECCAK256 PUSH1 0x0 SWAP2 POP SWAP1 POP DUP1 PUSH1 0x0 ADD SLOAD SWAP1 DUP1 PUSH1 0x1 ADD DUP1 SLOAD PUSH2 0xBA SWAP1 PUSH2 0x27B JUMP JUMPDEST DUP1 PUSH1 0x1F ADD PUSH1 0x20 DUP1 SWAP2 DIV MUL PUSH1 0x20 ADD PUSH1 0x40 MLOAD SWAP1 DUP2 ADD PUSH1 0x40 MSTORE DUP1 SWAP3 SWAP2 SWAP1 DUP2 DUP2 MSTORE PUSH1 0x20 ADD DUP3 DUP1 SLOAD PUSH2 0xE6 SWAP1 PUSH2 0x27B JUMP JUMPDEST DUP1 ISZERO PUSH2 0x133 JUMPI DUP1 PUSH1 0x1F LT PUSH2 0x108 JUMPI PUSH2 0x100 DUP1 DUP4 SLOAD DIV MUL DUP4 MSTORE SWAP2 PUSH1 0x20 ADD SWAP2 PUSH2 0x133 JUMP JUMPDEST DUP3 ADD SWAP2 SWAP1 PUSH1 0x0 MSTORE PUSH1 0x20 PUSH1 0x0 KECCAK256 SWAP1 JUMPDEST DUP2 SLOAD DUP2 MSTORE SWAP1 PUSH1 0x1 ADD SWAP1 PUSH1 0x20 ADD DUP1 DUP4 GT PUSH2 0x116 JUMPI DUP3 SWAP1 SUB PUSH1 0x1F AND DUP3 ADD SWAP2 JUMPDEST POP POP POP POP POP SWAP1 DUP1 PUSH1 0x2 ADD SLOAD SWAP1 POP DUP4 JUMP JUMPDEST PUSH1 0x0 DUP2 CALLDATALOAD SWAP1 POP PUSH2 0x152 DUP2 PUSH2 0x2ED JUMP JUMPDEST SWAP3 SWAP2 POP POP JUMP JUMPDEST PUSH1 0x0 PUSH1 0x20 DUP3 DUP5 SUB SLT ISZERO PUSH2 0x16A JUMPI PUSH1 0x0 DUP1 REVERT JUMPDEST PUSH1 0x0 PUSH2 0x178 DUP5 DUP3 DUP6 ADD PUSH2 0x143 JUMP JUMPDEST SWAP2 POP POP SWAP3 SWAP2 POP POP JUMP JUMPDEST PUSH1 0x0 PUSH2 0x18C DUP3 PUSH2 0x222 JUMP JUMPDEST PUSH2 0x196 DUP2 DUP6 PUSH2 0x22D JUMP JUMPDEST SWAP4 POP PUSH2 0x1A6 DUP2 DUP6 PUSH1 0x20 DUP7 ADD PUSH2 0x248 JUMP JUMPDEST PUSH2 0x1AF DUP2 PUSH2 0x2DC JUMP JUMPDEST DUP5 ADD SWAP2 POP POP SWAP3 SWAP2 POP POP JUMP JUMPDEST PUSH2 0x1C3 DUP2 PUSH2 0x23E JUMP JUMPDEST DUP3 MSTORE POP POP JUMP JUMPDEST PUSH1 0x0 PUSH1 0x20 DUP3 ADD SWAP1 POP PUSH2 0x1DE PUSH1 0x0 DUP4 ADD DUP5 PUSH2 0x1BA JUMP JUMPDEST SWAP3 SWAP2 POP POP JUMP JUMPDEST PUSH1 0x0 PUSH1 0x60 DUP3 ADD SWAP1 POP PUSH2 0x1F9 PUSH1 0x0 DUP4 ADD DUP7 PUSH2 0x1BA JUMP JUMPDEST DUP2 DUP2 SUB PUSH1 0x20 DUP4 ADD MSTORE PUSH2 0x20B DUP2 DUP6 PUSH2 0x181 JUMP JUMPDEST SWAP1 POP PUSH2 0x21A PUSH1 0x40 DUP4 ADD DUP5 PUSH2 0x1BA JUMP JUMPDEST SWAP5 SWAP4 POP POP POP POP JUMP JUMPDEST PUSH1 0x0 DUP2 MLOAD SWAP1 POP SWAP2 SWAP1 POP JUMP JUMPDEST PUSH1 0x0 DUP3 DUP3 MSTORE PUSH1 0x20 DUP3 ADD SWAP1 POP SWAP3 SWAP2 POP POP JUMP JUMPDEST PUSH1 0x0 DUP2 SWAP1 POP SWAP2 SWAP1 POP JUMP JUMPDEST PUSH1 0x0 JUMPDEST DUP4 DUP2 LT ISZERO PUSH2 0x266 JUMPI DUP1 DUP3 ADD MLOAD DUP2 DUP5 ADD MSTORE PUSH1 0x20 DUP2 ADD SWAP1 POP PUSH2 0x24B JUMP JUMPDEST DUP4 DUP2 GT ISZERO PUSH2 0x275 JUMPI PUSH1 0x0 DUP5 DUP5 ADD MSTORE JUMPDEST POP POP POP POP JUMP JUMPDEST PUSH1 0x0 PUSH1 0x2 DUP3 DIV SWAP1 POP PUSH1 0x1 DUP3 AND DUP1 PUSH2 0x293 JUMPI PUSH1 0x7F DUP3 AND SWAP2 POP JUMPDEST PUSH1 0x20 DUP3 LT DUP2 EQ ISZERO PUSH2 0x2A7 JUMPI PUSH2 0x2A6 PUSH2 0x2AD JUMP JUMPDEST JUMPDEST POP SWAP2 SWAP1 POP JUMP JUMPDEST PUSH32 0x4E487B7100000000000000000000000000000000000000000000000000000000 PUSH1 0x0 MSTORE PUSH1 0x22 PUSH1 0x4 MSTORE PUSH1 0x24 PUSH1 0x0 REVERT JUMPDEST PUSH1 0x0 PUSH1 0x1F NOT PUSH1 0x1F DUP4 ADD AND SWAP1 POP SWAP2 SWAP1 POP JUMP JUMPDEST PUSH2 0x2F6 DUP2 PUSH2 0x23E JUMP JUMPDEST DUP2 EQ PUSH2 0x301 JUMPI PUSH1 0x0 DUP1 REVERT JUMPDEST POP JUMP INVALID LOG2 PUSH5 0x6970667358 0x22 SLT KECCAK256 SWAP9 CHAINID DUP2 CALLDATASIZE 0xDE 0xD7 LOG0 DUP6 BYTE 0xBE JUMPI 0xB4 PUSH3 0x57DE4C 0x4B DIV STOP SWAP3 PUSH22 0x4E05928A19360150DCDFA664736F6C63430008010033 "
		},
		"gasEstimates": {
			"creation": {
				"codeDepositCost": "165200",
				"executionCost": "infinite",
				"totalCost": "infinite"
			},
			"external": {
				"candidates(uint256)": "infinite",
				"candidatesCount()": "1107"
			},
			"internal": {
				"addCandidate(string memory)": "infinite"
			}
		},
		"methodIdentifiers": {
			"candidates(uint256)": "3477ee2e",
			"candidatesCount()": "2d35a8a2"
		}
	},
	"abi": [
		{
			"inputs": [],
			"stateMutability": "nonpayable",
			"type": "constructor"
		},
		{
			"inputs": [
				{
					"internalType": "uint256",
					"name": "",
					"type": "uint256"
				}
			],
			"name": "candidates",
			"outputs": [
				{
					"internalType": "uint256",
					"name": "id",
					"type": "uint256"
				},
				{
					"internalType": "string",
					"name": "name",
					"type": "string"
				},
				{
					"internalType": "uint256",
					"name": "voteCount",
					"type": "uint256"
				}
			],
			"stateMutability": "view",
			"type": "function"
		},
		{
			"inputs": [],
			"name": "candidatesCount",
			"outputs": [
				{
					"internalType": "uint256",
					"name": "",
					"type": "uint256"
				}
			],
			"stateMutability": "view",
			"type": "function"
		}
	]
}